:020000040000FA
:0400000052EF00F0CB
:100018005B80D8CF46F0E8CF47F0E0CF48F0E9CF93
:1000280049F0EACF4AF0E1CF4BF0E2CF4CF0D9CF1C
:100038004DF0DACF4EF0F6CF4FF0F7CF50F0F8CFC3
:1000480051F0F5CF52F0F29466EC0EF004C053F084
:1000580005C054F053C032F054C033F050EC09F0EE
:1000680038EC0FF052C0F5FF51C0F8FF50C0F7FF51
:100078004FC0F6FF4EC0DAFF4DC0D9FF4CC0E2FFBB
:100088004BC0E1FF4AC0EAFF49C0E9FF48C0E0FFB2
:1000980047C0E8FF46C0D8FF5B901000E6EF0EF0BF
:10100000004C6967687420696E74656E73697479E1
:0710100000204C55580000C0
:101018001250800B1F6E12501224266E11BE2680AD
:101028002650D8B40DD02628D8A408D0000E0F6EAC
:10103800000E106E000E116E000E126E118E06D08C
:10104800000E0F6E000E106E000E116E000E126E66
:101058001650800B1F1A16501624276E15BE2780AF
:101068002750D8B40DD02728D8A408D0000E136E66
:10107800000E146E000E156E000E166E158E06D03C
:10108800000E136E000E146E000E156E000E166E16
:101098001350141015101610D8A417D0000E0F6E88
:1010A800000E106E000E116E000E126E800E1112E0
:1010B8007F0E12121F5012120FC00FF010C010F046
:1010C80011C011F012C012F012002650D8A409D095
:1010D800000E0F6E000E106E000E116E000E126ED6
:1010E8001200275026C017F0186A175E000E185A0B
:1010F8007F0E1724206E000E1820216E0FC01BF0E3
:1011080010C01CF011C01DF012C01EF0000E0F6EB2
:10111800000E106E000E116E000E126E000E226E82
:10112800000E236E000E246E000E256E000E276E34
:1011380028D02750D8B411D0D8901B361C361D366D
:101148001E36D8900F3610361136123625BE0F804F
:10115800D890223623362436253613501B5C14507B
:101168001C5815501D5816501E58D8A009D0258C4B
:1011780013501B5E14501C5A15501D5A16501E5AF7
:10118800272A190E2764D5D71B501C101D101E10B6
:10119800D8B411D022800FD0D8900F36103611361F
:1011A800123625BE0F80D8902236233624362536AF
:1011B8002006D8A0210611AEEFD7000E276E25AE67
:1011C80017D0FF0E2214176EFF0E2314186EFF0E91
:1011D8002414196E7F0E25141A6E17501810191042
:1011E8001A10D8B403D0010E276E02D00FB0FBD767
:1011F8002750D8B41FD0010E0F26000E102211223E
:10120800122212A017D00FC017F010C018F011C08A
:1012180019F012C01AF01A341A3219321832173269
:1012280017C00FF018C010F019C011F01AC012F052
:10123800204A212A21BE10D0215003E12028D8A01D
:101248000BD0000E216E2068000E0F6E000E106E7F
:10125800000E116E000E126E21BE05D0215011E154
:101268002004D8B00ED0000E216E000E206E000EA5
:101278000F6E000E106E000E116E000E126E000E34
:101288001F6E20C026F026A002D0118E01D0119E1C
:10129800D8902630126E0ED720EE55F010EE38F0AA
:1012A800050EDBCFE3FFE806FCE232C034F0356A16
:1012B800366A376A36C037F035C036F034C035F094
:1012C800346A34C042F035C043F036C044F037C009
:1012D80045F033504224426E000E4320436E000E08
:1012E8004420446E000E4520456E9A0E136E990EEA
:1012F800146E990E156E3F0E166E42C001F043C073
:1013080002F044C003F045C004F0010E08EC0AF0F6
:1013180001C00FF002C010F003C011F004C012F0B9
:101328000CEC08F00FC028F010C029F011C02AF00A
:1013380012C02BF03AEC0DF028C042F029C043F05F
:101348002AC044F02BC045F0000E416E040E406EDA
:1013580045BE4AD045504410431003E14204D8A08A
:1013680043D042C001F043C002F044C003F045C07E
:1013780004F00A0E056E000E066E000E076E000ED3
:10138800086E97EC0DF001C03EF002C03FF042C07D
:1013980001F043C002F044C003F045C004F00A0E57
:1013A800056E000E066E000E076E000E086ED4EC79
:1013B8000CF001C042F002C043F003C044F004C086
:1013C80045F0380E4024D96E000E4120DA6E380EF2
:1013D8004024E16E000E4120E26EE7503E24DF6EAD
:1013E8004006D8A04106B4D7070E0A6E380E0B6E19
:1013F800000E0C6E010ECDEC0EF0110E046E100EE8
:10140800056E2BEC0EF01200096E0950D8A404AE3C
:101418001AD001C005F002C006F003C007F004C0EE
:1014280008F0051E061E071E081E052A000E0622C5
:101438000722082205C00BF006C00CF007C00DF00B
:1014480008C00EF008D001C00BF002C00CF003C0B9
:101458000DF004C00EF00150021003100410D8A4BF
:1014680009D0000E016E000E026E000E036E000E13
:10147800046E1200960E0A6E06D00A2AD8900E3212
:101488000D320C320B32000E0B14056E000E0C14CC
:10149800066E000E0D14076EFE0E0E14086E055033
:1014A800061007100810D8B40DD0E7D70A2A010E85
:1014B8000B26000E0C220D220E22D8900E320D3271
:1014C8000C320B32000E0B14056E000E0C14066E57
:1014D800000E0D14076EFF0E0E14086E0550061050
:1014E80007100810D8B407D0E1D70A06D8900B36F1
:1014F8000C360D360E360DBE03D0020E0A60F5D737
:101508000AA00D9ED8900A320AC005F0066A076A3A
:10151800086A05C008F0076A066A056A05500B12D2
:1015280006500C1207500D1208500E120950D8A47C
:1015380004AE01D00E8E0BC001F00CC002F00DC03D
:1015480003F00EC004F012000001626F0001606B2E
:1015580062AF01D0602B60336033815060197F0B1C
:101568006019816E62C060F0060E616FD8906033BA
:10157800612FFCD7603B6047604781506019BF0B03
:101588006019816E62C060F0050E616FD89060339B
:10159800612FFCD7603B604781506019DF0B6019F1
:1015A800816E62C060F0603B0F0E6017603B815037
:1015B8006019EF0B6019816E82808282040E00012F
:1015C800606F3D0EE82EFED7602FFCD700D08292C8
:1015D800070E0001606F7D0EE82EFED7602FFCD746
:1015E80062C060F00001D8906033D8906033D89022
:1015F800603360336033815060197F0B6019816EEE
:1016080062C060F0D8906033D8906033603B604728
:10161800604781506019BF0B6019816E62C060F02D
:10162800D8906033603B604781506019DF0B6019C8
:10163800816E62B102D0819801D081888282040EC5
:101648000001606F3D0EE82EFED7602FFCD700D05A
:101658008292110E0001606F3A0EE82EFED7602FBD
:10166800FCD700F012000001636F0001606B63AFEC
:1016780001D0602B60336033815060197F0B601993
:10168800816E63C060F0060E616FD8906033612F81
:10169800FCD7603B6047604781506019BF0B6019F9
:1016A800816E63C060F0050E616FD8906033612F62
:1016B800FCD7603B604781506019DF0B6019816E71
:1016C80063C060F0603B0F0E6017603B815060198B
:1016D800EF0B6019816E82908282040E0001606FA8
:1016E8003D0EE82EFED7602FFCD700D08292070E61
:1016F8000001606F7D0EE82EFED7602FFCD763C017
:1017080060F00001D8906033D8906033D89060338F
:1017180060336033815060197F0B6019816E63C03C
:1017280060F0D8906033D8906033603B6047604782
:1017380081506019BF0B6019816E63C060F0D8904A
:101748006033603B604781506019DF0B6019816E20
:1017580063B102D0819801D081888282040E000191
:10176800606F3D0EE82EFED7602FFCD700D0829226
:10177800110E0001606F3A0EE82EFED7602FFCD7DD
:1017880000F01200036E016A03AE01D0012A013293
:101798000132815001187F0B0118816E03C001F0DE
:1017A800060E026ED8900132022EFCD7013A01468D
:1017B800014681500118BF0B0118816E03C001F06A
:1017C800050E026ED8900132022EFCD7013A01466E
:1017D80081500118DF0B0118816E03C001F0013A36
:1017E8000F0E0116013A81500118EF0B0118816E96
:1017F80082808282040E016E3E0EE82EFED7012EF4
:10180800FCD78292070E016E7D0EE82EFED7012EC0
:10181800FCD700F003C001F0D8900132D890013213
:10182800D890013201320132815001187F0B011822
:10183800816E03C001F0D8900132D8900132013A8C
:101848000146014681500118BF0B0118816E03C083
:1018580001F0D8900132013A014681500118DF0B9E
:101868000118816E03B002D0819801D081888282EC
:10187800040E016E3E0EE82EFED7012EFCD7829292
:10188800110E016E3A0EE82EFED7012EFCD700D0BD
:101898001200046E016A04AE01D0012A013201323D
:1018A800815001187F0B0118816E04C001F0060EEB
:1018B800026ED8900132022EFCD7013A0146014649
:1018C80081500118BF0B0118816E04C001F0050E8C
:1018D800026ED8900132022EFCD7013A014681509F
:1018E8000118DF0B0118816E04C001F0013A0F0ED8
:1018F8000116013A81500118EF0B0118816E829090
:101908008282040E016E3E0EE82EFED7012EFCD711
:101918008292070E016E7D0EE82EFED7012EFCD7AF
:1019280000F004C001F0D8900132D8900132D8906C
:10193800013201320132815001187F0B0118816E8A
:1019480004C001F0D8900132D8900132013A014622
:10195800014681500118BF0B0118816E04C001F0C7
:10196800D8900132013A014681500118DF0B011865
:10197800816E04B002D0819801D081888282040EE1
:10198800016E3E0EE82EFED7012EFCD78292110E74
:10199800016E3A0EE82EFED7012EFCD700D01200B9
:1019A800000E0A6E08AE0AD0081E071E061E056C39
:1019B800000E062207220822010E0A6E04AE0AD083
:1019C800041E031E021E016C000E022203220422C2
:1019D800010E0A1A000E0B6E000E0C6E000E0D6E34
:1019E800000E0E6E0550061007100810D8B42AD045
:1019F800010E096E06D0D890053606360736083629
:101A0800092A08AEF8D7D8900B360C360D360E36A4
:101A18000550015C065002580750035808500458F6
:101A2800D8A009D00550015E0650025A0750035A43
:101A38000850045A0B80D890083207320632053213
:101A4800092EE1D70A50D8B408D00E1E0D1E0C1E60
:101A58000B6C000E0C220D220E220BC001F00CC0E4
:101A680002F00DC003F00EC004F012002A342B342B
:101A7800316E3150D8A409D0000E286E000E296EA0
:101A8800000E2A6E000E2B6E120028C02CF029C002
:101A98002DF02AC02EF02BC02FF0200E05D0D890A4
:101AA8002F322E322D322C32E82EF9D72C50306EB0
:101AB8002A8EFF0E2816FF0E2916FF0E2A16000E74
:101AC8002B16960E315E31AE0DD03150800A970F2D
:101AD800D8A0D2D7D8902B322A3229322832313E98
:101AE800F9D70DD01F0E316407D0C6D7D890283645
:101AF80029362A362B3631063150D8A4F7D730503C
:101B0800D8B408D02B1E2A1E291E286C000E2922A4
:101B18002A222B2228C028F029C029F02AC02AF01E
:101B28002BC02BF01200000E0A6E04AE0AD0041E61
:101B3800031E021E016C000E022203220422010E63
:101B48000A6E08AE08D0081E071E061E056C000E99
:101B58000622072208220550061007100810D8B4DC
:101B680024D0010E096E06D0D89005360636073601
:101B78000836092A08AEF8D70550015C0650025805
:101B88000750035808500458D8A008D00550015EE3
:101B98000650025A0750035A0850045AD89008327F
:101BA800073206320532092EE7D70A50D8B408D0D2
:101BB800041E031E021E016C000E022203220422D0
:101BC80001C001F002C002F003C003F004C004F039
:101BD8001200000E0001686F000E676F1DD0000133
:101BE80067516325656F68516421666F65C0F6FFAC
:101BF80066C0F7FF000EF86E0F0EF76403D00800FA
:101C0800F55005D0F6CFE9FFF7CFEAFFEF50A8EC83
:101C18000AF00001674B682B67516325656F6851AF
:101C28006421666F65C0F6FF66C0F7FF000EF86EA8
:101C38000F0EF76403D00800F55005D0F6CFE9FF82
:101C4800F7CFEAFFEF500009D8B41200C8D7000E4A
:101C5800096E000E086E1BD008500424066E095049
:101C68000520076E06C0F6FF07C0F7FF000EF86EE6
:101C78000F0EF76403D00800F55005D0F6CFE9FF42
:101C8800F7CFEAFFEF50C6EC0BF0084A092A0850D4
:101C98000424066E09500520076E06C0F6FF07C02B
:101CA800F7FF000EF86E0F0EF76403D00800F5502A
:101CB80005D0F6CFE9FFF7CFEAFFEF500009D8B417
:101CC8001200CAD747EC0FF0460E1EEC0FF0100EAC
:101CD8001EEC0FF043EC0FF0030E076E490E066E74
:101CE800660EE82EFED7062EFCD7072EFAD700D0B0
:101CF80047EC0FF0470E1EEC0FF0010EB2EC0EF0A1
:101D0800086E000EB2EC0EF0096E43EC0FF008C03E
:101D180004F009C005F01200949094929398939A55
:101D2800939C939E410E0001646FEE0EE82EFED741
:101D3800642FFCD700F0020E37EC0BF0280E37ECBE
:101D48000BF00C0E37EC0BF0060E37EC0BF0010E17
:101D580037EC0BF0800E37EC0BF01200026EC586E4
:101D68004BEC0FF0000EE86E0250D8A403D0016AC5
:101D7800012A01D0016A013A0146C5500118DF0B5A
:101D88000118C56EC5884BEC0FF0C9CF03F003509E
:101D980012000D6E0D50D8A406D00A500F0B800902
:101DA8004DEC0CF008D00D04D8A405D00A500F0B48
:101DB800C0094DEC0CF00BC004F00CC005F02BEC86
:101DC8000EF012009E0EF66E1E0EF76E000EF86EE6
:101DD80000EE55F010EE06F00900F5CFEEFFE550E5
:101DE800E150FAE15B905B92000EF86E0001FDEFA6
:101DF8000EF00FEC0FF090EC0EF0010E0001636F87
:101E0800100E646FEDEC0DF03FEC0FF028EC0FF0C6
:101E180031EC0FF0FFD7949A829A948694883F0EFB
:101E2800C76E000EC56E180EC66E180EC86E9E964A
:101E3800C68A1200016E01C0C9FFC7B0FED7C5BC73
:101E4800FED74BEC0FF01200F294F28AF194000ED8
:101E5800D56ED584D582D5901200D59E670ED76EE3
:101E6800690ED66ED58E1200D59E670ED76E690E96
:101E7800D66ED58E1200D08EF28EF28C1200C584EA
:101E88004BEC0FF01200C5804BEC0FF012009EA631
:0C1E9800FED79E96120030303030300033
:020000040020DA
:08000000FFFFFFFFFFFFFFFF00
:020000040030CA
:0E000000FF021F1EF38381FFFFC0FFE0FF40E1
:00000001FF
